:020000040800F2
:1000000000000220111D0008F11B0008F31B00086E
:10001000F51B0008F71B0008F91B00080000000092
:10002000000000000000000000000000FB1B0008B2
:10003000FD1B000800000000FF1B0008011C000859
:10004000611D0008611D0008611D0008611D000898
:10005000611D0008611D0008611D0008611D000888
:10006000611D0008611D0008611D0008611D000878
:10007000611D0008611D0008611D0008611D000868
:10008000611D0008611D0008611D0008611D000858
:10009000611D0008611D0008611D0008611D000848
:1000A000611D0008051C0008611D0008611D000895
:1000B000611D0008611D0008611D0008611D000828
:1000C000611D0008611D0008611D0008611D000818
:1000D000611D0008611D0008111C00081D1C00089E
:1000E000611D0008611D0008611D0008611D0008F8
:1000F000611D0008611D0008611D0008611D0008E8
:10010000611D0008611D0008611D0008611D0008D7
:10011000611D0008611D0008611D0008611D0008C7
:10012000611D0008611D0008611D0008611D0008B7
:10013000611D0008611D0008611D0008611D0008A7
:10014000611D0008611D0008611D0008611D000897
:10015000611D0008611D0008611D0008611D000887
:10016000611D0008611D0008611D0008611D000877
:10017000611D0008611D0008611D000800000000ED
:08018000611D0008611D00086B
:1001900010B5054C237833B9044B13B10448AFF3C1
:1001A00000800123237010BD6C00002000000000BF
:1001B000142D000808B5034B1BB103490348AFF3E6
:1001C000008008BD0000000070000020142D000811
:1001D00001F0FF01102A2BDB10F0070F08D010F8F8
:1001E000013B013A8B422DD010F0070F42B3F6D1FC
:1001F000F0B441EA012141EA014122F007047FF015
:1002000000070023F0E80256083C85EA010586EA6B
:10021000010685FA47F5A3FA87F586FA47F6A5FAA7
:1002200087F68EB9EED1F0BC01F0FF0102F00702B3
:1002300032B110F8013B013A83EA010313B1F8D15E
:100240000020704701387047002D06BF354603383F
:10025000073815F0010F07D1013015F4807F02BF78
:10026000013015F4C03F0130F0BC0138704700BFC9
:1002700053B94AB9002908BF00281CBF4FF0FF310D
:100280004FF0FF3000F07AB9ADF1080C6DE904CE03
:1002900000F006F8DDF804E0DDE9022304B0704761
:1002A0002DE9F0478C460D460446089E002B51D19F
:1002B0008A4217466DD9B2FA82FEBEF1000F0BD00A
:1002C000CEF1200C01FA0EF520FA0CFC02FA0EF722
:1002D0004CEA050C00FA0EF44FEA174A250CBCFB59
:1002E000FAF81FFA87F90AFB18CC45EA0C4508FB17
:1002F00009F3AB420AD9ED1908F1FF3280F02381EE
:10030000AB4240F22081A8F102083D44ED1AA4B2AC
:10031000B5FBFAF00AFB105544EA054400FB09F965
:10032000A14509D9E41900F1FF3380F00A81A14504
:1003300040F2078102383C44A4EB090440EA08403B
:100340000021002E61D024FA0EF400233460736083
:10035000BDE8F0878B4207D9002E54D0002186E8F3
:1003600021000846BDE8F087B3FA83F1002940F088
:100370008E80AB4202D3824200F2FA80841A65EB8F
:1003800003050120AC46002E3FD086E81010BDE8E2
:10039000F08712B90127B7FBF2F7B7FA87FEBEF173
:1003A000000F34D1EB1B3A0C1FFA87FC0121B3FB81
:1003B000F2F8250C02FB183345EA03450CFB08F361
:1003C000AB4207D9ED1908F1FF3002D2AB4200F27F
:1003D000D1808046ED1AA3B2B5FBF2F002FB1055B6
:1003E00043EA05440CFB00FCA44507D9E41900F1DD
:1003F000FF3302D2A44500F2B8801846A4EB0C04E7
:1004000040EA08409DE731463046BDE8F087CEF12E
:10041000200405FA0EF307FA0EF720FA04F83A0C56
:1004200025FA04F448EA0308B4FBF2F14FEA184550
:1004300002FB11441FFA87FC45EA044501FB0CF35B
:10044000AB4200FA0EF409D9ED1901F1FF3080F04A
:100450008A80AB4240F2878002393D44EB1A1FFA92
:1004600088F5B3FBF2F002FB103345EA034500FBCD
:100470000CF3AB4207D9ED1900F1FF386FD2AB4254
:100480006DD902383D44EB1A40EA01418FE7C1F1D2
:10049000200722FA07F88B4005FA01F448EA030323
:1004A00020FA07FE4FEA134CFD404EEA040EB5FB5E
:1004B000FCF94FEA1E440CFB19551FFA83F844EA75
:1004C000054509FB08F4AC4202FA01F200FA01FA10
:1004D00008D9ED1809F1FF3043D2AC4241D9A9F156
:1004E00002091D442D1B1FFA8EFEB5FBFCF00CFB10
:1004F00010554EEA054400FB08F8A04507D9E4185A
:1005000000F1FF3529D2A04527D902381C4440EA22
:100510000940A4EB0804A0FB02894C45C6464D46A1
:1005200015D312D056B1BAEB0E0364EB050404FAEE
:1005300007F7CB401F43CC40376074600021BDE813
:10054000F0871846F8E69046E0E6C245EAD2B8EBF6
:10055000020E69EB03050138E4E72846D7E7404679
:1005600091E78146BEE7014678E702383C4445E71B
:10057000084608E7A8F102083D442BE7704700BF92
:1005800008B50B4B1A6842F400721A601A6842F4FC
:1005900080621A601A6842F480721A60032000F0C8
:1005A0002FF8002001F0E6FA01F054FA002008BD0F
:1005B000003C0240034A044B11681B780B44136053
:1005C000704700BFA400002000000020014B186805
:1005D000704700BFA400002038B50446FFF7F6FFBF
:1005E000631C1CBF054B1B78054618BFE418FFF7BA
:1005F000EDFF401B8442FAD838BD00BF0000002048
:10060000074AD36823F4E0631B041B0C43F0BF6369
:10061000000243F4003300F4E0600343D36070470A
:1006200000ED00E0174B30B5DC68C4F30224C4F1E0
:100630000703251D042B28BF0423062D4FF00105B9
:1006400005FA03F303F1FF338CBF033C0024194088
:10065000A14005FA04F4013C2240002842EA0102CC
:100660004FEA0212ADBF00F1604000F00F00064BF0
:1006700000F56140B5BFD2B2D2B21A5480F800235F
:1006800030BD00BF00ED00E014ED00E0002808DB05
:100690004209012300F01F0003FA00F0014B43F868
:1006A0002200704700E100E090F83530022B03D0C3
:1006B00080234365012070470268052380F83530A8
:1006C000136823F001031360002070472DE9F04FF9
:1006D00085B00B68DFF8AC81684ADFF8AC91019314
:1006E00000234FF0010E019C0EFA03FE0EEA0406F1
:1006F000B64540F0AE804C6824F01007022F16D1AA
:100700004FEAD30A00EB8A0A03F0070BDAF820500D
:100710004FEA8B0B4FF00F0C0CFA0BFC25EA0C0C7C
:100720000D6905FA0BF545EA0C05CAF820504FEAA9
:10073000430A0325D0F800B005FA0AF5ED4304F0AA
:10074000030C0BEA050B0CFA0AFC013F4CEA0B0CFC
:10075000012FC0F800C011D8876807EA050BCF68E1
:1007600007FA0AFC4CEA0B078760476827EA0E0E77
:10077000C4F300179F4047EA0E074760C7683D4033
:100780008F6807FA0AF73D43C560E50061D54FF071
:10079000000BCDF80CB0D8F84470394D47F48047C1
:1007A000C8F84470D8F8447007F480470397039F53
:1007B00023F0030707F1804707F59C3703F0030C8C
:1007C000D7F808A04FEA8C0C4FF00F0E0EFA0CFE73
:1007D000A8422AEA0E0E43D005F58065A84241D012
:1007E00005F58065A8423FD005F58065A8423DD05B
:1007F00005F58065A8423BD048453BD005F500652E
:10080000A84239D005F58065A84214BF0825072500
:1008100005FA0CF545EA0E05BD601568F74314F4BA
:10082000803F0CBF3D4035431560556814F4003FD0
:100830000CBF3D4035435560956814F4801F0CBFD4
:100840003D4035439560D568A40254BF3D403543D3
:10085000D5600133102B7FF444AF05B0BDE8F08FB5
:100860005D46D5E70125D3E70225D1E70325CFE78C
:100870000425CDE70525CBE70625C9E7003C014067
:10088000000002400038024000140240036919428F
:1008900014BF0120002070470AB18161704709042C
:1008A000FBE700002DE9F341044618B9012002B02E
:1008B000BDE8F0810368DD0710D42368980758D499
:1008C00023681A0700F19A8023685B0700F1B8805B
:1008D000A269002A40F019810020E8E7A64B9A6837
:1008E00002F00C02042A07D09A6802F00C02082ACF
:1008F0000AD15B68590207D59F4B1B689A03DCD568
:100900006368002BD9D1D1E763689B4DB3F5803F75
:1009100011D12B6843F480332B60FFF757FE964DBF
:1009200006462B689B03C8D4FFF750FE801B642843
:10093000F7D90320BBE7B3F5A02F04D12B6843F40C
:1009400080232B60E5E72A6822F480322A602A6837
:1009500022F480222A60002BDFD1FFF737FE064603
:100960002B689F03A9D5FFF731FE801B6428F7D9B8
:10097000DFE7814B9A6812F00C0F07D09A6802F0FB
:100980000C02082A11D15B685E020ED47A4B1A68F9
:10099000950702D5E268012A88D11A68216922F0F8
:1009A000F80242EAC1021A608AE7E268734BB2B108
:1009B00001221A60FFF70AFE6F4D06462B68980762
:1009C00007D52B68226923F0F80343EAC2032B60A2
:1009D00076E7FFF7FBFD801B0228EFD9A9E71A6035
:1009E000FFF7F4FD644D06462B6899077FF568AF65
:1009F000FFF7ECFD801B0228F6D99AE76269604B8D
:100A00007AB101221A60FFF7E1FD5B4D06466B6F7C
:100A10009F073FF559AFFFF7D9FD801B0228F6D994
:100A200087E71A60FFF7D2FD534D06466B6F9807B4
:100A30007FF54AAFFFF7CAFD801B0228F6D978E799
:100A40004D4B1A6C12F0805228D101921A6C42F070
:100A500080521A641B6C03F080530193019B0126A2
:100A6000484D2B68D9051BD5A368434D012B27D1D1
:100A70002B6F43F001032B67FFF7A8FD3E4D0746A0
:100A800041F288382B6F9B0739D5002E3FF420AFF9
:100A9000394A136C23F08053136419E70026DFE70B
:100AA0002B6843F480732B60FFF790FD07462B689B
:100AB000DA05D9D4FFF78AFDC01B0228F7D938E739
:100AC000052B04D12B6F43F004032B67D0E72A6F6B
:100AD00022F001022A672A6F22F004022A67002B03
:100AE000CAD1FFF773FD41F2883807462B6F98078C
:100AF000CBD5FFF76BFDC01B4045F7D919E7FFF7D2
:100B000065FDC01B4045BDD913E71B4DAB6803F025
:100B10000C03082B3FF4CAAE1B4E0023022A33609D
:100B200034D1FFF753FD07462B6899011ED4226A82
:100B3000E3691343626A43EA8213E26A43EA0263A7
:100B4000A26A0D4C5208013A43EA02436B6001234A
:100B50003360FFF73BFD054623689A013FF5BCAEC5
:100B6000FFF734FD401B0228F6D9E2E6FFF72EFD21
:100B7000C01B0228D8D9DCE60038024000004742FA
:100B8000800E47420070004060004742FFF71EFDA4
:100B900004462B689B017FF59FAEFFF717FD001BF6
:100BA0000228F6D9C5E600BF134908B58B6803F0E3
:100BB0000C03042B03D0082B03D0104808BD1048A9
:100BC00008BD4A684B68496813F4800314BF0C4899
:100BD0000A48C1F3881118BF002302F03F02A1FBAD
:100BE0000001FFF745FB044B5B68C3F3014301338E
:100BF0005B00B0FBF3F008BD003802400024F400B5
:100C000040787D012DE9F0410D46044610B90120E0
:100C1000BDE8F081444B1A6802F00F028A4228D3E3
:100C200021688F072DD4C80740D43F4B1A6802F0C3
:100C30000F02954266D3226851076CD4130707D57B
:100C40003A4A2169936823F4604343EAC1039360FD
:100C5000FFF7AAFF354B364A9B68C3F30313D35CF7
:100C6000D840344B1860002000F084FF0020BDE81D
:100C7000F081CAB21A701B6803F00F039942C6D103
:100C8000CEE72A4B11F0040F1EBF9A6842F4E052DF
:100C90009A600E0742BF9A6842F460429A609A686E
:100CA000A06822F0F00202439A60BCE762681F4B22
:100CB000012A1DD11B6813F4003FA8D01B4EB36856
:100CC00023F003031343B360FFF780FC41F288383D
:100CD0000746B368626803F00C03B3EB820FA4D03D
:100CE000FFF774FCC01B4045F3D90320BDE8F08139
:100CF000911E01291B6802D813F0007FDDE713F075
:100D0000020FDAE7EAB21A701B6803F00F039D4284
:100D10007FF47DAF8FE70549E0688B6823F4E053EB
:100D200003438B608AE700BF003C0240003802406A
:100D3000302E000804000020044B054A9B68C3F3D2
:100D40008223D35C034A1068D840704700380240C1
:100D5000402E000804000020044B054A9B68C3F3A2
:100D60004233D35C034A1068D840704700380240D1
:100D7000402E0008040000200F2303600B4B9A68EC
:100D800002F0030242609A6802F0F00282609A6800
:100D900002F4E052C2609B68DB0803F4E053036195
:100DA000034B1B6803F00F030B60704700380240D1
:100DB000003C024070470368DA6842F00102DA60E2
:100DC0009A6802F00702062A1EBF1A6842F0010262
:100DD0001A6000207047704770477047704703687B
:100DE0001A69910710B504460ED5DA6892070BD53B
:100DF0006FF002021A619B6901229B07027777D08C
:100E0000FFF7EAFF0023237723681A69500710D5FC
:100E1000DA6851070DD56FF004021A619B6902224E
:100E200013F4407F2277204668D0FFF7D5FF0023D8
:100E3000237723681A6912070FD5DA6810070CD5D3
:100E40006FF008021A61DB690422990722772046B5
:100E50005AD0FFF7C1FF0023237723681A69D2060F
:100E600010D5DA68D0060DD56FF010021A61DB6973
:100E7000082213F4407F227720464BD0FFF7ACFFC7
:100E80000023237723681A69D10708D5DA68D207C7
:100E900005D56FF001021A61204600F0D1FD2368EC
:100EA0001A69100608D5DA68110605D56FF08002B8
:100EB0001A61204600F0B7F823681A69520608D56F
:100EC000DA68500605D56FF040021A612046FFF738
:100ED00085FF23681A69910622D5DA6892061FD524
:100EE0006FF0200220461A61BDE8104000F09AB869
:100EF000FFF771FF2046FFF770FF83E7FFF76BFFF7
:100F00002046FFF76AFF92E7FFF765FF2046FFF7ED
:100F100064FFA0E7FFF75FFF2046FFF75EFFAFE744
:100F200010BD0000304A0368904212D0B0F1804FEB
:100F30000FD0A2F57C4290420BD002F58062904225
:100F400007D002F58062904203D002F578429042C9
:100F500019D14A6823F070031343234A904229D0E1
:100F6000B0F1804F26D0A2F57C42904222D002F50B
:100F7000806290421ED002F5806290421AD002F543
:100F80007842904216D0194A904213D002F58062FE
:100F900090420FD002F5806290420BD0A2F59832B9
:100FA000904207D002F58062904203D002F5806241
:100FB000904203D1CA6823F4407313434A6923F073
:100FC0008003134303608B68C3620B688362064B24
:100FD000984203D003F58063984201D10B69036303
:100FE00001234361704700BF000001400040014001
:100FF00010B50446A0B190F83D3003F0FF021BB9D4
:1010000080F83C20FFF7D6FE022384F83D302068AC
:10101000211DFFF787FF012384F83D30002010BD1C
:10102000012010BD704770470368DA6822F490729F
:10103000DA605A6922F001025A61202380F83A30BE
:10104000704700002DE9F0470668C2683369C1693E
:1010500023F4405313433361044683680069F26804
:101060000343606922F41642034322F00C020B434F
:101070001343F3607369A26923F440731343B1F51A
:10108000004F73617A4B7CD19E4203D003F580639D
:101090009E4244D1FFF760FE192505FB00F360680E
:1010A0004FF064094000B3FBF0F3B3FBF9F34FEAF0
:1010B0000318FFF751FE636868435B00B0FBF3F76A
:1010C000FFF74AFE636868435B00B0FBF3F3B3FBD2
:1010D000F9F309FB1373DB003233B3FBF9F35B0065
:1010E00003F4F877FFF738FE626868435200B0FBFC
:1010F000F2FAFFF731FE636868435B00B0FBF3F37D
:10110000B3FBF9F309FB13A3DB003233B3FBF9F3B1
:1011100003F0070343443B44B360BDE8F087FFF7A7
:101120000BFE192505FB00F360684FF064094000D1
:10113000B3FBF0F3B3FBF9F34FEA0318FFF7FCFD41
:10114000636868435B00B0FBF3F7FFF7F5FD636886
:1011500068435B00B0FBF3F3B3FBF9F309FB1373D4
:10116000DB003233B3FBF9F35B0003F4F877FFF7EE
:10117000E3FD626868435200B0FBF2FAFFF7DCFD62
:10118000B9E79E4202D03B4B9E4240D1FFF7E4FDBF
:10119000676819254FF0640905FB00F3BF00B3FB36
:1011A000F7F3B3FBF9F31F01FFF7D6FD636868435C
:1011B0009B00B0FBF3F8FFF7CFFD636868439B002B
:1011C000B0FBF3F3B3FBF9F309FB13831B013233D9
:1011D000B3FBF9F303F0F008FFF7BEFD6268684364
:1011E0009200B0FBF2FAFFF7B7FD636868439B001B
:1011F000B0FBF3F3B3FBF9F309FB13A31B01323389
:10120000B3FBF9F303F00F0343EA080383E7FFF7A7
:1012100093FD676819254FF0640905FB00F3BF00D3
:10122000B3FBF7F3B3FBF9F31F01FFF785FD636829
:1012300068439B00B0FBF3F8FFF77EFD63686843EB
:101240009B00B0FBF3F3B3FBF9F309FB13831B0122
:101250003233B3FBF9F303F0F008FFF76DFD62687A
:1012600068439200B0FBF2FAFFF766FDBDE700BFEE
:10127000001001400014014010B5044640B390F83E
:10128000393003F0FF021BB980F8382000F0FEFB74
:101290002268242384F83930D36823F40053D360C0
:1012A0002046FFF7CFFE23681A6922F490421A61A4
:1012B0005A6922F02A025A61DA6842F40052DA606E
:1012C00000202023E06384F8393084F83A3010BDE0
:1012D000012010BD90F83930202B18D1A9B1A2B14E
:1012E00090F83830012B12D0C2840162828400232E
:1012F0000168C363212280F83920CA6880F8383039
:1013000042F08002CA6018467047012070470220F0
:10131000704790F83A30202B20D1E9B1E2B190F833
:101320003830012B1AD0C285828500232222C36364
:1013300080F83A2002688162D16880F8383041F440
:101340008071D160516941F001015161D16841F072
:101350002001D16018467047012070470220704775
:1013600090F83A30222B10B536D1836801690268B3
:10137000B3F5805F836A23D15268E9B9C2F30802EA
:1013800023F8022B8362C48D013CA4B2C4858CB9BE
:101390000368DA6822F02002DA60DA6822F48072E8
:1013A000DA605A6922F001025A61202380F83A304B
:1013B00000F0C4FA002010BDD2B223F8012BE1E7FF
:1013C00021B9591C526881621A70DCE75268591CB5
:1013D000816202F07F02F7E7022010BD03681A68FD
:1013E000D96870B5160704465D6907D196065AD5C7
:1013F0008D0658D5BDE87040FFF7B2BF15F0010566
:1014000002D111F4907F4ED0D30705D5CE0542BF4F
:10141000E36B43F00103E363500704D51DB1E36BB5
:1014200043F00203E363930704D51DB1E36B43F07C
:101430000403E363160704D51DB1E36B43F008030F
:10144000E363E36B002B66D0950604D5880602D5CE
:101450002046FFF785FF23685D69E26B1107204690
:1014600002D415F040051AD0FFF7DEFD23685A6953
:10147000520610D55A69606B22F040025A6150B191
:10148000254B0365FFF710F9002844D0606BBDE8D9
:101490007040036D1847204600F098FA70BD00F0C8
:1014A00095FAE56370BD160627D50D0625D594F887
:1014B0003920212A2FD1A268B2F5805F226A17D184
:1014C0001188C1F308015960216979B90232226299
:1014D000E28C013A92B2E284EAB9DA6822F0800240
:1014E000DA60DA6842F04002DA6070BD0132EEE79D
:1014F000511C216212785A60EAE750060BD54A0661
:1015000009D5DA6822F04002DA60202384F8393005
:10151000204600F0D9F970BD1D15000808B5806B94
:101520000023C385C38400F051FA08BD30B595B0DF
:101530003022002108A800F03FFC0021142203A85B
:1015400000F03AFC00241C4B01941A6C42F08052CB
:101550001A641B6C03F080530193019B174B029498
:101560001A6842F480421A601B680F9403F48043A7
:101570000293029B01230B9310230C9308231093D7
:10158000A8230225119308A80423139308950E9508
:101590001295FFF787F90F2303934FF4A053069397
:1015A00005214FF4805303A8049505940793FFF792
:1015B00029FB15B030BD00BF00380240007000406C
:1015C0002DE9F04F8FB0FEF7DBFFFFF7AFFF1422DE
:1015D000002109A800F0F0FB00279F4B04971A6B2D
:1015E0009E489F4CDFF8CC9242F080021A631A6B3F
:1015F00002F080020492049A05971A6B42F00402EA
:101600001A631A6B02F004020592059A06971A6B88
:1016100042F001021A631A6B02F001020692069A66
:1016200007971A6B42F002021A631A6B02F0020269
:101630000792079A08971A6B42F008021A631B6B0D
:1016400003F008033A4608930821089BFFF724F9A2
:10165000022309A98348099301260B930A97FFF7F0
:1016600035F809A9804809960A970B97FFF72EF8D5
:1016700009A90823794809930A960B970C97FFF755
:1016800025F87A487A4B87604FF4E1380C2580E8DA
:1016900008014561C76007618761C761FFF7ECFD1D
:1016A000744B6561204684E80801A760E760276104
:1016B000A761E761FFF7E0FD0A20FEF78DFF6E4DA1
:1016C0006E4BDFF8F4811F702E806D4EA9F800700C
:1016D000A8F8007037802A886A49204692B2FFF73E
:1016E00018FE444601954D4610B1674800F0F4FBE2
:1016F000664A0023D9B2D1540133642BFAD1DFF802
:10170000BC81DFF8BCA1002798F80030012B2DD157
:101710005F4BDFF890915F484FF0000B88F800B006
:10172000197899F8002000F04FFB5B4800F04CFB63
:101730005A4A59464B46187801F1010BC9B2814209
:1017400009D30A2000F058FB002389F8003001205B
:10175000FEF742FFD8E703934C4B0292595C1046C8
:1017600000F032FB5946039B029AE4E701213E4810
:10177000FFF78CF801281FD14FF47A70FEF72CFF89
:101780003946474800F020FB414A384800232121D0
:1017900088F80030117043490B702B8007F1010964
:1017A00012783A495FFA89F9FFF794FD10B13E4883
:1017B00000F092FB4F46CAE73288238892B29BB270
:1017C0009A42C4D0019B394819882288338892B242
:1017D0009BB289B200F0F8FA354800F0F5FA228899
:1017E000338892B29BB29A420AD9B4F80090DFF8DB
:1017F000D4B05FFA89F9B9F1630F0DD900232380C2
:10180000DFF8C0902288338892B29BB29A4214D3F8
:101810000A2000F0F1FA9AE733881AFA83F358465F
:1018200013F8091000F0D0FA2B8801339BB209F1AC
:1018300001092B805FFA89F9DDE723889BB25A1CE6
:1018400092B21AF803102280484600F0BDFA2B88A5
:1018500001339BB22B80D5E700380240000C0240D8
:10186000A80000200008024000000240780200208A
:1018700000440040004800408E0000208800002006
:101880008C000020E8000020AC2D0008B0010020F2
:1018900090000020B82D0008DD2D0008282E00083B
:1018A000E32D000894000020F42D0008002E00080D
:1018B000222E0008920000208A00002091000020C3
:1018C0004C010020272E00080168164A9142F0B50D
:1018D000034626D1C28C818C92B231B9124B134986
:1018E0001A78BDE8F040FFF7F5BC8A4219D2104ED5
:1018F0000E4FDFF844E00020891A884204DB6AB109
:101900000A4801441846ECE73478E4B2651CEDB2AD
:1019100035703D5C0EF804500130EEE7054B0122B6
:101920001A70F0BD0044004090000020B00100207B
:1019300094000020910000201402002002681D4B3A
:101940009A42F0B5064634D1C28D818D92B239B932
:10195000194B1A491A8892B2BDE8F040FFF7D9BC7A
:101960008A4226D200231648DFF850E0DFF858C03C
:10197000891A1F468B4204DB9AB1104B194430463A
:10198000EAE70488A4B2642C08BF07800488A4B2E4
:10199000651CADB205801EF803500CF804500133ED
:1019A000E8E7084B054901221A70034B1A8892B2E6
:1019B000E5E7F0BD004800408E000020E800002070
:1019C0008C000020880000204C0100200368154A8C
:1019D000934270B504460CD1C58C848C1248ADB2CC
:1019E00000F07AFA224629461048BDE8704000F01F
:1019F000EBB90F4A934213D1C58D868D0D48ADB218
:101A000000F06AFA324629460B4800F0DDF90B492E
:101A1000761B2A4631442046BDE87040FFF779BC6A
:101A200070BD00BF004400402C2D00084C2D000864
:101A3000004800406C2D00088C2D0008E8000020B4
:101A40000268034B9A4201D1FEF7B4BD704700BF54
:101A50000000014082B00C4B002100915A6C42F40E
:101A600080425A645A6C02F480420092009A0191BA
:101A70001A6C42F080521A641B6C03F0805301937D
:101A8000019B02B0704700BF0038024010B514221D
:101A90008AB0044600210DEB020000F08DF92368A6
:101AA0002F4A93422DD12F4B2F48002401941A6CBA
:101AB00042F400321A641A6C02F400320192019A64
:101AC00002941A6B42F001021A631B6B03F00103CC
:101AD0000293029B0C230593022306930123079391
:101AE0000323089305A907230993FEF7EFFD26209A
:101AF00022462146FEF796FD2620FEF7C7FD0AB0D6
:101B000010BD1A4A9342FAD1164B19480024039487
:101B10001A6C42F480221A641A6C02F48022039236
:101B2000039A04941A6B42F002021A631B6B03F0CF
:101B300002030493049B4FF440630593022306932E
:101B4000012307930323089305A907230993FEF7AD
:101B5000BDFD272022462146FEF764FD2720CCE765
:101B600000440040003802400000024000480040AD
:101B70000004024030B5014689B000221920FEF76A
:101B800051FD1920FEF782FD0025154B02955A6C78
:101B9000144C42F001025A645B6C03F0010302939F
:101BA00001A903A8029BFFF7E7F8FFF7D5F80E4B52
:101BB000236040F2E733E36040000C4BB0FBF3F0EE
:101BC0000138606020462561A560FFF711FA20B951
:101BD0002046FFF7F0F809B030BD0120FBE700BF59
:101BE00000380240B80200200000014040420F00CF
:101BF0007047FEE7FEE7FEE7FEE770477047704775
:101C0000704700000148FFF7EAB800BFB8020020A3
:101C10000148FFF7E3BB00BF780200200148FFF74F
:101C2000DDBB00BFA800002070B50E4615460C466F
:101C3000A31B9D4201DC284670BDAFF3008004F871
:101C4000010BF5E710B500234FF06044934201DB30
:101C5000104610BDD4F8800EC00703D5D4F8000E8E
:101C6000C00702D40133F1E700BF20680028FBD091
:101C7000C85C2070F6E7000008B50A4B19680246F8
:101C800009B9094919601868694602448A4206D9A7
:101C900000F068F80C2303604FF0FF3008BD1A60B5
:101CA00008BD00BF98000020FC0200204FF0FF306C
:101CB00070474FF400534B6000207047012070477D
:101CC000002070470F49D1F8883043F47003C1F801
:101CD00088300D4B1A68002042F001021A609860AB
:101CE0001A6822F0847222F480321A60074A5A601D
:101CF0001A6822F480221A60D8604FF000638B606B
:101D0000704700BF00ED00E00038024010300024B2
:101D1000DFF834D0002103E00C4B5B584350043112
:101D20000B480C4B42189A42F6D30B4A02E00023B0
:101D300042F8043B094B9A42F9D3FFF7C3FF00F086
:101D400017F8FFF73DFC704700000220F02E000856
:101D5000000000206C0000206C000020FC0200202D
:101D6000FEE70000014B1868704700BF0800002024
:101D700070B50D4E0D4CA41BA4100025A54209D131
:101D80000B4E0C4C00F0C6FFA41BA4100025A5426E
:101D900005D170BD56F8253098470135EEE756F865
:101DA000253098470135F2E7E82E0008E82E0008B4
:101DB000E82E0008EC2E000802440346934200D1AE
:101DC000704703F8011BF9E70FB40A4B13B51C6801
:101DD00024B1A36913B9204600F038FA05AB049A80
:101DE000A1680193204600F0F5FB02B0BDE8104069
:101DF00004B070470800002038B5084B1C68054641
:101E000024B1A36913B9204600F020FAA26829463C
:101E10002046BDE8384000F089BE00BF0800002021
:101E200070B50E46054618B183690BB900F00EFA7D
:101E3000AB69AC6813B9284600F008FA234B9C4202
:101E400017D16C68A3891B071DD52369DBB1013E3F
:101E5000A36816F8011F013BA360E9B9002B2EDA35
:101E600022460A21284600F03FF8013011D00A200E
:101E700070BD174B9C4201D1AC68E3E7154B9C4207
:101E800008BFEC68DEE72146284600F07FF800280E
:101E9000DDD04FF0FF3070BD002B04DAA269934211
:101EA00006DB0A2904D023685A1C22601970CFE788
:101EB0002246284600F018F80130C9D1E9E7236826
:101EC0000A205A1C2260187070BD00BF6C2E0008DA
:101ED0008C2E00084C2E0008024B01461868FFF7B4
:101EE0009FBF00BF08000020F8B50E461446054607
:101EF00018B183690BB900F0A9F9214B9C422AD192
:101F00006C68A369A360A3891A072ED5236963B3FC
:101F100023692068C01A6369F6B29842374604DB29
:101F20002146284600F028F928BBA368013BA3609E
:101F300023685A1C22601E7063690130984204D0E5
:101F4000A389DB0719D50A2E17D12146284600F0B0
:101F500013F990B10FE00B4B9C4201D1AC68D0E774
:101F6000094B9C4208BFEC68CBE72146284600F0AD
:101F70000DF80028CCD04FF0FF373846F8BD00BF31
:101F80006C2E00088C2E00084C2E0008324B70B5C9
:101F90001D6806460C4625B1AB6913B9284600F00A
:101FA00055F92E4B9C420FD16C68B4F90C309AB2A3
:101FB00015072CD4D00611D40922326043F0400317
:101FC000A3814FF0FF3070BD254B9C4201D1AC681E
:101FD000EBE7244B9C4208BFEC68E6E7510712D5BB
:101FE000616B41B104F14403994202D0304600F0E4
:101FF0001BFA00236363A38923F02403A381002336
:10200000636023692360A38943F00803A3812369E4
:102010004BB9A38903F42073B3F5007F03D02146A5
:10202000304600F0C1F9A28912F001030CD0002360
:10203000A36063695B42A361236953B9B4F90C30AF
:1020400013F08000BAD170BD920758BF6369A360D6
:10205000F2E70020F7E700BF080000206C2E000820
:102060008C2E00084C2E00088A892DE9F041054687
:1020700010070C465AD44B68002B05DC0B6C002B68
:1020800002DC0020BDE8F081E66A002EF9D00023D2
:1020900012F480522F682B6033D0606DA3895A07E9
:1020A00005D56368C01A636B0BB1236CC01A00239B
:1020B0000246E66A216A2846B047431CA38906D136
:1020C00029681D294BD82B4ACA40D60747D500227C
:1020D0006260D9042269226004D5421C01D12B68B8
:1020E00003B96065616B2F600029CAD004F1440315
:1020F000994202D0284600F097F900206063BDE8BD
:10210000F081216A01232846B047411CC6D12B68C3
:10211000002BC3D01D2B01D0162B01D12F60B0E7AF
:10212000A38943F04003A381BDE8F0810F69002F2C
:10213000A7D093070E6808BF4B690F6018BF002334
:10214000A6EB07088B60B8F1000F9ADD43463A46CC
:10215000216AA66A2846B047002807DCA38943F015
:102160004003A3814FF0FF30BDE8F0810744A8EBA6
:102170000008E8E70100402038B50B6905460C4629
:10218000DBB118B183690BB900F060F80C4B9C42CD
:1021900009D16C68B4F90C307BB121462846BDE802
:1021A0003840FFF761BF074B9C4201D1AC68F1E7B3
:1021B000054B9C4208BFEC68ECE7002038BD00BF2F
:1021C0006C2E00088C2E00084C2E0008014900F0EF
:1021D000A9B800BF79210008002310B504460360A8
:1021E0004360836081814366C2810361436183618F
:1021F000194608225C30FFF7DFFD054B6362054B93
:10220000A362054BE362054B2462236310BD00BF4C
:10221000B92B0008DB2B0008132C0008372C000812
:1022200070B54A1E682555430E4605F1740100F04D
:1022300049F9044640B1002180E842000C30A0601A
:1022400005F16802FFF7B8FD204670BD836910B53F
:10225000044633BB8364C3640365124B124A1B6894
:102260008262984204BF0123836100F01FF860601E
:10227000204600F01BF8A060204600F017F800226E
:10228000E06004216068FFF7A7FF01220921A06830
:10229000FFF7A2FF02221221E068FFF79DFF012352
:1022A000A36110BD482E0008CD210008F8B51C4BD5
:1022B0001E68B369074613B93046FFF7C7FF4836B3
:1022C000B4687368013B03D5336833B13668F7E708
:1022D000B4F90C506DB16834F4E704213846FFF7C7
:1022E0009FFF30600028F1D10C233B60044620465C
:1022F000F8BD4FF6FF73E3810123A3816566256076
:10230000A560656025616561A5610822294604F123
:102310005C00FFF751FD6563A563A564E564E6E72E
:10232000482E00082DE9F8438046894600F148040C
:10233000002614B93046BDE8F883A5686768013FF8
:1023400001D52468F5E7AB89012B07D9B5F90E3023
:10235000013303D029464046C84706436835EEE7B7
:1023600070B50E46B1F90E10002990B014461D4606
:1023700007DA00232B60B3891A0610D44FF4806368
:102380000EE001AA00F07EFC0028F2DB029A02F4C3
:102390007042A2F500535A425A412A60EEE74023A8
:1023A0000020236010B070BD8B8973B59D07064671
:1023B0000C4607D504F147032360236101236361C1
:1023C00002B070BD01AB6A46FFF7CAFF009905462F
:1023D000304600F077F848B9B4F90C309A05EFD4DC
:1023E00023F0030343F00203A381E3E70D4BB36241
:1023F000A389206043F08003A381009B6361019B5C
:1024000020615BB1B4F90E10304600F04DFC28B1EC
:10241000A38923F0030343F00103A381A3891D4390
:10242000A581CDE7CD21000838B50546002945D066
:1024300051F8043C0C1F002BB8BFE41800F056FC08
:102440001F4A1368104633B9636014602846BDE81C
:10245000384000F04CBCA3420CD92168621893426A
:1024600004BF1A685B68636004BF5218226004608E
:10247000ECE713465A680AB1A242FAD9196858180B
:10248000A0420BD120680144581882421960DDD166
:10249000106852685A6001441960D7E702D90C23CA
:1024A0002B60D3E7206821188A4204BF1168526864
:1024B000626004BF091821605C60C7E738BD00BFD7
:1024C0009C00002070B5CD1C25F0030508350C2DAF
:1024D00038BF0C25002D064601DBA94203D90C2389
:1024E0003360002070BD00F001FC234A14682146CF
:1024F00091B9224C23681BB9304600F04DFB206097
:102500002946304600F048FB431C26D10C2333609B
:10251000304600F0ECFBE4E70B685B1B1AD40B2B96
:102520000FD90B60CD50CC18304600F0E0FB04F121
:102530000B00231D20F00700C31A1BD05A42E250A3
:1025400070BD8C420DBF63684B686360136018BF39
:102550000C46E9E70C464968CAE7C41C24F00304AA
:10256000A04205D0211A304600F016FB0130CDD034
:102570002560D9E770BD00BF9C000020A0000020AE
:102580009368013B002B10B4936009DA9469A3426D
:1025900002DBCBB20A2B03D15DF8044BFFF7A4BCDE
:1025A0001368581C10601970C8B25DF8044B70476E
:1025B000F8B506460F461446D518AC4201D10020A6
:1025C00007E03A4614F8011B3046FFF7D9FF431CD9
:1025D000F3D1F8BD2DE9F04F9DB00C46174603939B
:1025E000064618B183690BB9FFF730FE7C4B9C425D
:1025F00057D17468A38918075DD52369002B5AD079
:102600000023099320238DF8293030238DF82A30B8
:102610004FF0010BB846454615F8013B002B55D14C
:10262000B8EB070A0BD053463A4621463046FFF72F
:10263000BFFF013000F0C480099B5344099398F810
:102640000030002B00F0BC8000234FF0FF320493D9
:102650000793059206938DF853301A930522297833
:102660006048FDF7B5FD05F10108049B002831D154
:10267000D90644BF20228DF853201A0744BF2B22CD
:102680008DF853202A782A2A2CD0079A00210A2074
:10269000A846013598F80030303B092B6DD971B34D
:1026A00026E0514B9C4201D1B468A3E74F4B9C42BA
:1026B00008BFF4689EE721463046FFF767FC002814
:1026C0009ED04FF0FF301DB0BDE8F08F252BA7D076
:1026D000A846A0E7434A801A0BFA00F0184304907A
:1026E0004546BBE7039A111D12680391002A01DBDE
:1026F000079204E0524243F002030792049398F8D1
:1027000000302E2B10D198F801302A2B08F101014E
:1027100037D1039B1A1D1B680392002BB8BF4FF0E3
:10272000FF3308F102080593314D98F80010032299
:102730002846FDF74DFD40B14023401B03FA00F051
:10274000049B0343049308F1010898F800102948FA
:102750008DF82810062208F10107FDF739FD002841
:1027600034D0254B03BB039B073323F00703083307
:102770000393099B4B4409934CE700FB0232012170
:1027800086E70023059318460A258846013198F804
:102790000020303A092A03D9002BC5D00590C3E7A1
:1027A00005FB00200123F0E703AB00932246134B07
:1027B00004A93046AFF30080B0F1FF3F8146D8D185
:1027C000A3895B063FF57DAF09987CE703AB0093D7
:1027D00022460A4B04A9304600F088F8ECE700BF17
:1027E0006C2E0008AC2E00088C2E00084C2E000821
:1027F000B22E0008B62E000800000000B125000827
:102800002DE9F04791461F468A680B69DDF8208064
:102810009342B8BF1346C9F8003091F843200646EA
:102820000C4612B10133C9F800302368990642BF43
:10283000D9F800300233C9F80030256815F00605D4
:1028400007D104F1190AE368D9F800209B1A9D42C8
:1028500029DB94F843302268003318BF0123920625
:102860002ED404F1430239463046C047013021D00E
:102870002368E568D9F8002003F00603042B08BF9D
:10288000AD1AA36822690CBF25EAE57500259342BD
:10289000C4BF9B1AED184FF000091A344D451BD1E7
:1028A0000020BDE8F0870123524639463046C04734
:1028B000013003D14FF0FF30BDE8F0870135C2E7AA
:1028C000E1185A1C302081F84300224494F8451046
:1028D00082F843100233C4E70123224639463046CA
:1028E000C0470130E6D009F10109D7E72DE9F043EF
:1028F00017460A7E85B06E2A984606460C460C9B03
:1029000001F1430E00F0BC801AD8632A2ED00AD8F9
:10291000002A00F0C880582A00F08A8004F142059D
:1029200084F842202AE0642A01D0692AF6D121687D
:102930001A6811F0800F23D0111D1960136827E069
:10294000732A00F0B48008D86F2A2AD0702AE5D103
:102950000A6842F020020A6003E0752A21D0782A32
:10296000DCD1782284F845206E4964E01A6801F1D0
:102970004205111D1960136884F842300123A3E059
:1029800011F0400F02F104011960D7D0B2F9003004
:10299000002B03DA2D225B4284F8432062490A228D
:1029A00017E02068196810F0800F03D0081D186028
:1029B0000B6806E010F0400F01F104001860F7D03A
:1029C0000B8859496F2A14BF0A220822002084F874
:1029D00043006568A560002DC0F29C80206820F04F
:1029E00004002060002B3FD1002D40F095807546FB
:1029F000082A0BD12368DA0708D5236962689A424E
:102A0000DEBF302305F8013C05F1FF35AEEB0503D1
:102A10002361CDF800803B4603AA21463046FFF7EC
:102A2000EFFE013055D14FF0FF3005B0BDE8F08327
:102A300081F845203C492268186812F0800F00F1A7
:102A400004051D6001D0036802E05506FBD503882C
:102A5000D00744BF42F0200222601BB9226822F056
:102A6000200222601022B1E77546B3FBF2F002FBB0
:102A70001033CB5C05F8013D03460028F5D1B7E7DC
:102A800008681A68496910F0800F04D0101D18609A
:102A90001368196007E010F0400F02F1040018609D
:102AA0001368F6D01980002323617546B1E71A68D0
:102AB000111D19601568626800212846FDF788FB22
:102AC00008B1401B606063682361002384F84330D1
:102AD0009FE723692A4639463046C0470130A2D0D5
:102AE00023689B0707D5002504F11909E368039AB9
:102AF0009B1A9D4205DBE068039B9842B8BF1846CD
:102B000093E701234A4639463046C04701308AD010
:102B10000135EBE7002BA7D10B7884F8423004F1A4
:102B2000420565E7CE2E0008BD2E000870B50D46A3
:102B30001446064618B183690BB9FFF787FB134BA0
:102B40009C4212D17468A368013B002BA36016DA83
:102B5000A269934202DBEBB20A2B10D1224629462E
:102B60003046BDE87040FFF7BFB9094B9C4201D128
:102B7000B468E8E7074B9C4208BFF468E3E72368C2
:102B80005A1C22601D70E8B270BD00BF6C2E000898
:102B90008C2E00084C2E000838B5064C0023054644
:102BA00008462360FFF768F8431C02D1236803B18D
:102BB0002B6038BDF802002010B50C46B1F90E109C
:102BC00000F096F80028ABBF636DA3891B1823F4AF
:102BD0008053ACBF6365A38110BD2DE9F0411F4652
:102BE0008B89DB0505460C46164605D502230022D7
:102BF000B1F90E1000F068F8A389B4F90E1023F4AF
:102C00008053A38132463B462846BDE8F04100F0A0
:102C100017B810B50C46B1F90E1000F055F8431C6A
:102C2000A38915BF606523F4805343F48053A381C7
:102C300018BFA38110BDB1F90E1000F013B8000049
:102C400038B5074C054608461146002222601A4650
:102C5000FEF7F8FF431C02D1236803B12B6038BD97
:102C6000F802002038B5064C0023054608462360CC
:102C7000FFF71CF8431C02D1236803B12B6038BD59
:102C8000F802002038B5074C0023054608461146D7
:102C90002360FFF70EF8431C02D1236803B12B60B9
:102CA00038BD00BFF802002038B5064C00230546A9
:102CB00008462360FFF702F8431C02D1236803B1E2
:102CC0002B6038BDF802002038B5074C0546084691
:102CD0001146002222601A46FEF7F2FF431C02D181
:102CE000236803B12B6038BDF8020020704770479D
:102CF00038B5074C054608461146002222601A46A0
:102D0000FEF792FF431C02D1236803B12B6038BD4C
:102D1000F8020020F8B500BFF8BC08BC9E4670471A
:0C2D2000F8B500BFF8BC08BC9E46704728
:102D2C003E2048414C5F554152545F4572726F7260
:102D3C0043616C6C6261636B205553415254320099
:102D4C003E20547858666572436F756E743D2564E9
:102D5C002054785866657253697A653D25640A007B
:102D6C003C2048414C5F554152545F4572726F7222
:102D7C0043616C6C6261636B205553415254330058
:102D8C003C20527858666572436F756E743D2564AD
:102D9C002052785866657253697A653D25640A003D
:102DAC003C2048414C5F4552524F52003D3E2074EE
:102DBC006F5472616E736665723D25642077617322
:102DCC005472616E736665727265643D2564200A87
:102DDC00002D2D3E2020000A202D2D2D2D20256488
:102DEC00202D2D2D2D2D0A003E2048414C5F4552A3
:102DFC00524F52003C3D20746F526561643D256416
:102E0C00207278506F73313D2564207278506F7347
:102E1C00323D25640A003C2D2D2000203078252ED3
:102E2C0032582000000000000000000001020304E2
:102E3C000607080900000000010203040C00002032
:102E4C000000000000000000000000000000000076
:102E5C000000000000000000000000000000000066
:102E6C000000000000000000000000000000000056
:102E7C000000000000000000000000000000000046
:102E8C000000000000000000000000000000000036
:102E9C000000000000000000000000000000000026
:102EAC00232D302B2000686C4C0065666745464727
:102EBC0000303132333435363738394142434445AA
:102ECC004600303132333435363738396162636419
:042EDC006566000027
:082EE000C0D3FF7F01000000D8
:042EE800B501000828
:042EEC009101000848
:102EF000010000000024F4000C000020000000008D
:102F00006C2E00088C2E00084C2E000800000000DB
:102F100000000000000000000000000000000000B1
:102F200000000000000000000000000000000000A1
:102F30000000000000000000000000000000000091
:102F40000000000000000000000000000000000081
:0C2F500000000000000000000000000075
:0400000508001D11C1
:00000001FF
